{
  "contractName": "Splitter",
  "abi": [
    {
      "inputs": [],
      "payable": false,
      "stateMutability": "nonpayable",
      "type": "constructor"
    },
    {
      "anonymous": false,
      "inputs": [
        {
          "indexed": false,
          "name": "uno",
          "type": "address"
        },
        {
          "indexed": false,
          "name": "monto",
          "type": "uint256"
        }
      ],
      "name": "TransferEth",
      "type": "event"
    },
    {
      "constant": true,
      "inputs": [
        {
          "name": "cuenta",
          "type": "address"
        }
      ],
      "name": "Saldo",
      "outputs": [
        {
          "name": "",
          "type": "uint256"
        }
      ],
      "payable": false,
      "stateMutability": "view",
      "type": "function"
    },
    {
      "constant": false,
      "inputs": [],
      "name": "split",
      "outputs": [
        {
          "name": "",
          "type": "bool"
        }
      ],
      "payable": true,
      "stateMutability": "payable",
      "type": "function"
    }
  ],
  "bytecode": "0x6060604052341561000f57600080fd5b33600160006101000a81548173ffffffffffffffffffffffffffffffffffffffff021916908373ffffffffffffffffffffffffffffffffffffffff16021790555073583031d1113ad414f02576bd6afabfb302140225600260006101000a81548173ffffffffffffffffffffffffffffffffffffffff021916908373ffffffffffffffffffffffffffffffffffffffff16021790555073dd870fa1b7c4700f2bd7f44238821c26f7392148600360006101000a81548173ffffffffffffffffffffffffffffffffffffffff021916908373ffffffffffffffffffffffffffffffffffffffff160217905550610278806101096000396000f30060606040526004361061004c576000357c0100000000000000000000000000000000000000000000000000000000900463ffffffff16806389c9885814610051578063f76541761461009e575b600080fd5b341561005c57600080fd5b610088600480803573ffffffffffffffffffffffffffffffffffffffff169060200190919050506100c0565b6040518082815260200191505060405180910390f35b6100a66100e1565b604051808215151515815260200191505060405180910390f35b60008173ffffffffffffffffffffffffffffffffffffffff16319050919050565b60006002348115156100ef57fe5b04600080600260009054906101000a900473ffffffffffffffffffffffffffffffffffffffff1673ffffffffffffffffffffffffffffffffffffffff1673ffffffffffffffffffffffffffffffffffffffff1681526020019081526020016000206000828254019250508190555060023481151561016957fe5b04600080600360009054906101000a900473ffffffffffffffffffffffffffffffffffffffff1673ffffffffffffffffffffffffffffffffffffffff1673ffffffffffffffffffffffffffffffffffffffff1681526020019081526020016000206000828254019250508190555034600080600160009054906101000a900473ffffffffffffffffffffffffffffffffffffffff1673ffffffffffffffffffffffffffffffffffffffff1673ffffffffffffffffffffffffffffffffffffffff1681526020019081526020016000206000828254039250508190555060019050905600a165627a7a72305820146293083c25f32af94f317a98c66092a3440bc6aab2bbfec9de6cc452db3d400029",
  "source": "pragma solidity ^0.4.18;\n\ncontract Splitter {\n\n    mapping (address => uint) balance;\n    address owner;\n    address bob;\n    address carol;\n    \n    modifier restriccion(){\n        if (msg.sender == owner)_;\n    }\n    \n    function Splitter() {\n        owner = msg.sender;\n        bob = 0x583031d1113ad414f02576bd6afabfb302140225;\n        carol = 0xdd870fa1b7c4700f2bd7f44238821c26f7392148;\n    }\n    \n    event TransferEth(address uno, uint monto);\n    \n    function Saldo(address cuenta) constant returns(uint){\n        return cuenta.balance;\n    }\n    \n    function split() public payable returns(bool) {\n        balance[bob] += msg.value / 2;\n        balance[carol] += msg.value / 2;\n\t\tbalance[owner] -= msg.value;\n\t\treturn true;\n    }\n \n}\n",
  "sourcePath": "/home/blockchain/DAPPS/Splitter/contracts/Splitter.sol",
  "compiler": {
    "name": "solc",
    "version": "0.4.19+commit.c4cbbb05.Emscripten.clang"
  },
  "schemaVersion": "1.0.1",
  "updatedAt": "2018-09-21T21:25:28.464Z"
}